:1000000012C02CC02BC02AC029C028C049C526C098
:1000100025C024C023C022C021C020C01FC01EC0D4
:100020001DC01CC01BC011241FBECFE5D4E0DEBF25
:10003000CDBF10E0A0E6B0E0ECEDFBE002C0059023
:100040000D92A83CB107D9F720E0A8ECB0E001C0C0
:100050001D92AA3DB207E1F7DED4BEC5D1CF8823F9
:1000600014F4C59A01C0C59886FF02C0C49A01C0A5
:10007000C49885FF02C0C39A01C0C39884FF02C020
:10008000C29A0895C2980895CF93C82F807FE7DF62
:10009000979A959A8FE99FE00197F1F700C00000C9
:1000A000959897988FE99FE00197F1F700C00000BD
:1000B0008C2F8295807FD3DF979A959A8FE99FE066
:1000C0000197F1F700C00000959897988FE99FE09D
:1000D0000197F1F700C00000CF910895CF93C82F8A
:1000E000807FBDDF959A8FE99FE00197F1F700C00F
:1000F000000095988FE99FE00197F1F700C000009C
:100100008C2F8295807FABDF959A8FE99FE00197D6
:10011000F1F700C0000095988FE99FE00197F1F793
:1001200000C00000CF9108958FE59AEE0197F1F796
:1001300000C0000080E093DF979896989598BA9A4F
:10014000BB9ABC9ABD9A8F9A8E9A8D9A80E387DF6C
:10015000959A8FE99FE00197F1F700C0000095980C
:100160008FE99FE00197F1F700C0000080E377DF9F
:10017000959A8FE99FE00197F1F700C000009598EC
:100180008FE99FE00197F1F700C0000080E267DF90
:10019000959A8FE99FE00197F1F700C000009598CC
:1001A0008FE99FE00197F1F700C0000088E296DF39
:1001B0008CE094DF089581E091DF0895623031F0A2
:1001C000633031F0613029F4805C03C08C5E01C083
:1001D0008C5A806883DF0895EF92FF920F931F93EC
:1001E000CF93DF9300D000D01F92CDB7DEB77B0155
:1001F000FE01319625E0DF011D922A95E9F700976F
:1002000051F035962AE030E0B901B3D48293862FBD
:10021000972F0097C9F705E010E00E191F09053068
:10022000110594F4E1E0F0E0EC0FFD1F0E0F1F1F2D
:100230007E01F6E0EF0EF11CD8018D918D01805DFD
:1002400023DFE016F106C1F70F900F900F900F908B
:100250000F90DF91CF911F910F91FF90EF90089534
:10026000CF93DF93EC018881882329F021960CDF5E
:1002700089918111FCCFDF91CF910895CF93DF93C6
:100280001F92CDB7DEB76983698170E0FB0102C0C0
:10029000F595E7954A95E2F7E0FF2AC0BC01660FA5
:1002A000771FFB01EF52FF4F408151814F5F5F4F3E
:1002B00051834083FB01E553FF4F118210822417C5
:1002C0003507ACF5FC01E952FF4F2081211107C031
:1002D000FC01E952FF4F21E0208381E02BC0880F11
:1002E000991FFC01EF52FF4F1182108280E022C063
:1002F000BC01660F771FFB01E553FF4F4081518121
:100300004F5F5F4F51834083FB01EF52FF4F1182DC
:100310001082241735076CF4FC01E952FF4F10825C
:10032000FB01E553FF4F1182108280E003C080E0A3
:1003300001C080E00F90DF91CF9108958EB5886065
:100340008EBD89B7806189BF8EB584608EBD83E222
:1003500094EF9BBD8ABD08958EB584608EBD1DBC93
:100360001CBC08958EB58B7F8EBD1DBC1CBC089532
:100370000F931F9380916000813039F460E080E03A
:100380001DDF8BE690E06CDF06C060E083E016DFE7
:100390008CE790E065DF8FE39CE90197F1F700C0FF
:1003A00000008091C8009091C9006CE370E0E1D337
:1003B0008B0161E084E002DF62E070E0C8010CDFE5
:1003C00061E087E0FBDE86E890E04ADF61E089E0FB
:1003D000F5DE44EC40039001419F300D11248091E3
:1003E000C8009091C90062E070E0820F931FF4DEB4
:1003F0001F910F91089560E082E0E0DE88E890E0D0
:100400002FDF08952091C8003091C90080916200CB
:1004100090E08217930724F4AD98AC98AB9A0895B6
:100420001216130624F4AD98AC9AAB980895AD9AC1
:10043000AC98AB9808958091C8009091C9008170E4
:100440009078992324F401978E6F9F6F01960197FE
:1004500011F4AC980895AC9A08951F93CF938091AE
:10046000CA00813009F0D9C0A6DE8FE39CE901976C
:10047000F1F700C0000060E081E0A0DE85E990E0D7
:10048000EFDE9FEF2DE389E4915020408040E1F7BB
:1004900000C0000090DE8FE39CE90197F1F700C0F7
:1004A000000060E080E08ADE8BE690E0D9DE61E06B
:1004B00084E084DE80916100C9E88C9F812D112445
:1004C00082958695877062E070E090E085DE61E05D
:1004D00087E074DE86E890E0C3DE61E089E06EDEEE
:1004E000809161008C9FC12D1124C295C695C77063
:1004F00090E062E070E02CE3C29F80199109112422
:100500006BDE8FE39CE90197F1F700C00000C9E8BA
:1005100014EC7EC066B320E931E041E081E090E078
:10052000ADDE882371F1809161008F5F809361005F
:1005300061E084E043DE809161008C9F812D112475
:1005400082958695877062E070E090E045DE61E01C
:1005500087E034DE86E890E083DE61E089E02EDE2D
:10056000309161003C9F812D1124282F22952695E2
:1005700027701203C001112462E070E0830F911D07
:100580002BDE66B320E931E040E080E090E076DEEB
:10059000882381F180916100882319F08150809334
:1005A000610061E084E00ADE809161008C9F812D12
:1005B000112482958695877062E070E090E00CDEF1
:1005C00061E087E0FBDD86E890E04ADE61E089E0FB
:1005D000F5DD309161003C9F812D1124282F22955B
:1005E000269527701203C001112462E070E0830F8A
:1005F000911DF2DD60B320E931E043E082E090E05C
:100600003DDE882329F08091CA008F5F8093CA0065
:100610008091CA00813009F47DCF8091CA00823078
:1006200009F00CC1C8DD8FE39CE90197F1F700C028
:10063000000060E083E0C2DD83EA90E011DE61E06B
:1006400084E0BCDD2091630030916400A9E8B8E843
:10065000A3D262E070E096958795929582958F700F
:1006600089279F708927B8DD61E087E0A7DD86E8EC
:1006700090E0F6DD61E089E0A1DD409163005091FA
:1006800064009A01A9E8B8E887D296958795929573
:1006900082958F7089279F7089276CE3689F9001EE
:1006A000699F300D112462E070E0CA01821B930B38
:1006B00093DD8FE39CE90197F1F700C00000CCE3E4
:1006C000B8C066B320E931E041E081E090E0D6DDDA
:1006D000882309F44CC080916300909164008835B0
:1006E00022E0920728F401969093640080936300BF
:1006F00061E084E063DD2091630030916400A9E84B
:10070000B8E84AD262E070E0969587959295829516
:100710008F7089279F7089275FDD61E087E04EDD5C
:1007200086E890E09DDD61E089E048DD409163006E
:10073000509164009A01A9E8B8E82ED29695879561
:10074000929582958F7089279F708927C89F900105
:10075000C99F300D112462E070E0CA01821B930B27
:100760003BDD8FE39CE90197F1F700C0000066B321
:1007700020E931E040E080E090E080DD882309F46A
:100780004AC08091630090916400009729F001971E
:10079000909364008093630061E084E00FDD20911A
:1007A000630030916400A9E8B8E8F6D162E070E037
:1007B00096958795929582958F7089279F70892746
:1007C0000BDD61E087E0FADC86E890E049DD61E07E
:1007D00089E0F4DC40916300509164009A01A9E83B
:1007E000B8E8DAD196958795929582958F7089278A
:1007F0009F708927C89F9001C99F300D112462E026
:1008000070E0CA01821B930BE7DC8FE39CE9019740
:10081000F1F700C0000060B320E931E043E082E07E
:1008200090E02CDD882329F08091CA008F5F8093AF
:10083000CA008091CA00823009F443CF8091CA0077
:10084000833009F0CFC0B7DC8FE39CE90197F1F763
:1008500000C0000060E082E0B1DC8EEA90E000DDE4
:1008600061E084E0ABDC80916200C9E88C9F812D5F
:10087000112482958695877062E070E090E0ACDC90
:1008800061E087E09BDC86E890E0EADC61E089E0FB
:1008900095DC809162008C9FC12D1124C295C69574
:1008A000C77090E062E070E02CE3C29F801991096C
:1008B000112492DC8FE39CE90197F1F700C000005E
:1008C000C9E814EC8AC066B320E931E041E081E078
:1008D00090E0D4DC8823A1F1809162008F5F809347
:1008E000620061E084E06ADC809162008C9F812D6F
:1008F000112482958695877062E070E090E06CDC50
:1009000061E087E05BDC86E890E0AADC61E089E0FA
:1009100055DC309162003C9F812D1124282F2295B7
:10092000269527701203C001112462E070E0830F46
:10093000911D52DC8FE39CE90197F1F700C00000A4
:1009400066B320E931E040E080E090E097DC882366
:10095000B1F180916200882319F081508093620088
:1009600061E084E02BDC809162008C9F812D11245A
:1009700082958695877062E070E090E02DDC61E002
:1009800087E01CDC86E890E06BDC61E089E016DC47
:10099000309162003C9F812D1124282F22952695AD
:1009A00027701203C001112462E070E0830F911DD3
:1009B00013DC8FE39CE90197F1F700C0000060B3FE
:1009C00020E931E043E082E090E058DC882329F020
:1009D0008091CA008F5F8093CA008091CA008330E3
:1009E00009F471CFE8DB8FE39CE90197F1F700C0D0
:1009F000000060E083E0E2DB8BEB90E031DC9FEF16
:100A00002DE389E4915020408040E1F700C00000D0
:100A1000CF911F9108958091610090E09093C9005B
:100A20008093C80081DBC7DBE6DC2FEF83ED90E32A
:100A3000215080409040E1F700C000008CD07EDC67
:100A400078948FEF84BB87B38C7F87BB8B9815BA64
:100A500060B320E931E043E082E090E00FDC8823DE
:100A6000B9F38091CA008F5F8093CA007BDCF5DC0C
:100A70008091CA00843060F31092CA0080916100B6
:100A800090E09093C9008093C80066DC2FEF89E660
:100A900098E1215080409040E1F700C00000D8CF9D
:100AA0001F920F920FB60F9211242F933F934F93E3
:100AB0005F936F937F938F939F93AF93BF93EF93C6
:100AC000FF9356DC80916000813011F4B4DC01C0EA
:100AD00099DC8091C8009091C90001979093C9005A
:100AE0008093C800992334F5809160008130B9F477
:100AF0001092600037DC5FDB2FEF81EE94E0215035
:100B000080409040E1F700C0000080916300909128
:100B100064009093C9008093C8001EDC0BC0811153
:100B200009C080916300909164009093C900809304
:100B3000C80018DCFF91EF91BF91AF919F918F9109
:100B40007F916F915F914F913F912F910F900FBEC9
:100B50000F901F90189580B58F7B80BD599810BC61
:100B600087E689B98AB188618AB980B58E6880BD07
:100B7000089597FB072E16F4009406D077FD08D051
:100B800017D007FC05D03EF4909581959F4F0895AE
:100B9000709561957F4F0895A29FB001B39FC001EA
:100BA000A39F01D0B29F700D811D1124911D089546
:100BB000AA1BBB1B51E107C0AA1FBB1FA617B70783
:100BC00010F0A61BB70B881F991F5A95A9F780959F
:0C0BD0009095BC01CD010895F894FFCF72
:100BDC00010A0F3C000C00203A20005052455041B5
:100BEC00524154494F4E2054494D45004D41494EB8
:100BFC002054494D45003A00415243484552204348
:100C0C004C4F434B0053455454494E4753204D4F82
:100C1C0044450054494D45204C494D4954005741D9
:100C2C00524E494E472054494D450054494D45526A
:080C3C0020524553455400000D
:00000001FF
